:020000042000DA
:10000000971100609381816697120000938202A18C
:1000100073905230170100E01301C1FE970000E019
:10002000938040FE638300008290732540F18145F8
:1000300001460D20970000E09380C0FC6383000020
:100040008290970200009382C20073905230032383
:100050000000F5BF068497110060938121611701AC
:100060000160130121FA137101FF01E197120000F1
:100070009382C2FD170300601303C3F89383418288
:10008000638C6200635A730003A50200910223206F
:10009000A3001103E34A73FE97120000938202FB50
:1000A00017030060130303F697030060938383F53F
:1000B000638C6200635A730003A50200910223203F
:1000C000A3001103E34A73FE1383418293830184E7
:1000D00063577300232003001103E34D73FE11C225
:1000E0000296171500001305E595EF001013EF00B9
:1000F000D0180545971500009385C5F21716000026
:10010000130686F23120EF00F011A28082808280F7
:10011000797122D406D626D24AD04ECE52CC56CAB7
:100120005AC85EC600187350503037290110232476
:100130000900232C09022320090423280900B704FD
:10014000001083A7C40BB7B927D09D096397370167
:1001500023AE040A79247124F5BF03AAC40B23AE8D
:10016000340B412423AE440B232C0902232809001D
:10017000232609002320090423240900EF00406DF1
:1001800037150020130585F4612603A50414B71A5A
:100190000020371A0020192137150020130545F5D6
:1001A000852E03A54414DD2E371500201305C5F553
:1001B000852603A54408DD2613854AF6912E03A55E
:1001C000C40BE92E1305CAF6A126B7F75100938791
:1001D000E715DCCC23A0040083A6C40B37C7D0BE30
:1001E000130707ED6387E60C03A7C40B6303370D02
:1001F00023A6F4145D4723A0E41223A6F41423A23B
:10020000E41223A6F41423A4E41223A6F41423A6D0
:10021000E41223A6F4141307000323A8E41223A670
:10022000F41423AAE41223A6F41423ACE41223A6A4
:10023000F414B709001023AEE4123E89938404102D
:10024000138BC9149387091223202B0198C09104A2
:10025000E39CF4FEB7C7D0BE938707ED23AEF90A3F
:100260003715002023A209081305C5F7552403A557
:1002700049082D2613854AF6612C03A5C90B392E92
:100280001305CAF671243715002023202B0123A45F
:100290000914130585F8AD2C03A54908012613851B
:1002A0004AF6BD2403A5C90BD52C1305CAF68D2427
:1002B00035A037150020130505F7B7040010892C69
:1002C00003A54408E12C13854AF6992403A5C40B21
:1002D000F1241305CAF62D2C23AE040A83A5C1828E
:1002E000056B13058BBBBD222A893715002013052A
:1002F00045F9B7440F00292C9384042433559902FF
:10030000371A0020B71A00202D2413058AFA092471
:10031000337599021309803E33552503192C138533
:10032000CAFAFD223715002083ABC182130545FBB5
:10033000C52233D52B03F52A13058AFAD12A33F5C2
:100340002B03C52A37150020130545FCD12237E5BC
:10035000F50513050510F52E83A5C18213058BBB8A
:10036000D528AA89371500201305C5FC552233D599
:100370009902C12213058AFA612A33F5990233558D
:100380002503452A1385CAFA6122B707001023A264
:10039000070823AE070AB70701208297B2502254FC
:1003A00037D5120092540259F249624AD24A424B5E
:1003B000B24B13057568456182803705008093074D
:1003C000455B9C5B89C71305455B6F00F008828025
:1003D000370500809307455B8C5B1305455B6F0019
:1003E0005033011122CE0010B7C7000203A787FFC8
:1003F00083A7C7FF37C800022320E4FE2322F4FEB0
:10040000032504FE9167832544FEAA9733B7A7000E
:10041000B306B7002324F4FE2326D4FE032688FF68
:100420008326C8FF032784FE8327C4FE63E9F60002
:100430006394D7006365E600724405618280F9BF6A
:10044000411122C60008732500B0F32500B83244DC
:1004500041018280011122CC26CA4AC84EC652C42C
:1004600006CE0010B7C7000223AC07FE2A89AE896A
:1004700003AA87FFF137AA8437C70002832787FFC3
:10048000B3874741E3EC27FF653F058D33552503CF
:10049000F2406244D2444249224A23A8A182330551
:1004A0003503B24905618280411122C406C60008A5
:1004B000AA850565130585BB713F23AAA182930711
:1004C000803EB356F502B240224423A2D182374780
:1004D0000F00130707243355E50233D5A70223ACD9
:1004E000A18241018280411122C6000883A7818236
:1004F00091CBB73702109843E34F07FE324488C3CD
:1005000041018280B73701109843E34F07FEFDB7E2
:10051000411122C426C206C60008AA8403C50400ED
:1005200011E5B24022449244410182808504653F36
:10053000F5B7011122CC4EC606CE26CA4AC852C40F
:100540000010AA89635705001305D002693FB3095B
:10055000304181440149A9476391090291E08544F2
:100560007D5AA949FD1463934403F2406244D24486
:100570004249B249224A0561828033F7F902850473
:100580003309F902B3D9F9023A99F9B73375390346
:1005900013050503893F33593903E9B7011106CE25
:1005A00022CC26CA4AC84EC60010AA8413050003EE
:1005B0001D3F13058007053F2149B70900A013D54A
:1005C000C40163F03403130505037D19293F920428
:1005D000E31709FEF2406244D2444249B249056140
:1005E000828013057505D5B7411122C60008B7C72B
:1005F000000223AC07FE930710023305F50237C74C
:100600000002832787FFE3EEA7FE32444101828088
:10061000411122C426C206C60008AA84130540065A
:10062000E13783A78182A9C7B7270110D85FB70632
:100630007CFFFD16758FD8DF985FB70684000565CF
:10064000558F98DF83A5C182130585BB21353355AE
:100650009502B73702107D1588CF98472244B240E3
:1006600092441367170098C7130540064101ADBFB8
:10067000B7270110D85FB706FDFFFD16758FD8DFCD
:10068000985FB70603000565558F98DF83A5C18283
:10069000130585BBC13333559502B73701107D155E
:1006A00065BF011122CC4AC84EC652C406CE26CA26
:1006B0000010B7870010D8432A8A2E899316170096
:1006C000B28963C90600D843B70600402945558F53
:1006D000D8C3193FB78400109C4437070400154560
:1006E000D98F9CC411379C44370702000566D98F07
:1006F0009CC49C444167130606C0D98F9CC49C448B
:1007000041771209AA09B3F9C900F98F1379093F92
:10071000137A7A00B3E74701336939013E9923A47C
:1007200024012945D1359C4463D507001305401F9A
:10073000653DB78600109C463707FCFFF2406244D7
:100740007D17F98F9CC6D2444249B249224A0561BD
:100750008280011122CC26CA06CE4AC80010B78773
:100760000010984798479C47B7A40700B737D803AD
:10077000938404129387F711B354950263F1A70889
:100780008D4713070008B384F4028984635C9706DD
:1007900093961400B3C4F6021306201893D714409E
:1007A0006354D6066354F7068984054905469307C2
:1007B000000813D7144063CE970093061900C14771
:1007C000B3C7D70293060030B387E702860763D426
:1007D000F6007D16BA8429452326C4FE313503264A
:1007E000C4FE93D514404A85FD15653D6244F24030
:1007F000D2444249716513050520056111BD0D49BB
:100800000D4675B70949EDBF0549DDBFBE840549F1
:10081000094671BF411122C426C206C60008B78727
:1008200000103707060098C79847C166AA84558FFD
:1008300098C79D391165130505E8B384A40203A583
:100840004182B240224433D5A402924441018280C5
:10085000397122DC06DE26DA4AD84ED652D456D278
:100860005AD05ECE62CC66CA6AC880003747011093
:100870003C43F19B3CC3F3770430B727011023A41A
:10088000070023AC070203A7818223A6070023A049
:1008900007046309070ED847B706840037067CFFB4
:1008A000558FD8C798477D16558F98C7D85F718FD9
:1008B000D8DF985F558F98DFB73702101307B0085D
:1008C00098CF4167050798C70547D8C7896723268A
:1008D00004FC9387F7700327C4FC63D9E70CB78740
:1008E00000103707060098C79847C166370AE1FF2E
:1008F000558F98C7B7070010B85B7D1AB706100070
:1009000033774701B8DBB85B2165558FB8DB193702
:100910001307803EB356E502617B23A6A1820149FD
:10092000130B0B30930C703E7D4CB70A0010A16B7B
:100930007D5D23AED182A167B384A740B3D4E40226
:10094000C10483A7C182DA9763FDFC06636B9C0632
:1009500083A70A07B3F7470123A8FA0603A70A07E4
:1009600093970401D98F23A8FA0603A5C1825D35A8
:1009700023A6A182631209040549636375017D59A9
:10098000CA94C1B7D847B70603003706FDFF558F95
:10099000D8C798477D16558F98C7D85F718FD8DF15
:1009A000985F558F98DFB737011009BF0327C4FC44
:1009B00005072326E4FC05B763FBAB048547E31179
:1009C000F9FC371500201305C5FD993637150020B1
:1009D000130545FE353E371500201305C5FE0D3EB7
:1009E00037150020130545FF25366254F250D254C6
:1009F0004259B259225A925A025BF24B624CD24C83
:100A0000424D3715002013050500216111B6E30999
:100A100075F7E317A9F775B701A0AA8581460146C6
:100A20000145D9A04111814522C406C62A84312A34
:100A30009387018288435C5D91C3829722856D2AEA
:100A4000411197F7FFDF9387E75B22C417F4FFDFBD
:100A50001304445B1D8C26C206C60984BE8419E4B7
:100A60002244B240924441016FF06FEA7D14931723
:100A70002400A6979C438297DDB741119707000099
:100A80009387475C22C4170400001304A45B1D8CE9
:100A900026C24AC006C6098481443E8963988402FE
:100AA000EFF0EFE6970700009387C759170400009F
:100AB0001304C4591D8C098481443E89639F8400BA
:100AC000B24022449244024941018280939724001B
:100AD000CA979C4385048297D1B793972400CA97FD
:100AE0009C4385048297D9BF9387018298432A83C8
:100AF0008327871489E79307C7142324F714D8435F
:100B00007D487D556342E80493182700630903027A
:100B1000338517012324C50803A887180546331613
:100B2000E6003368C80023A407192324D51089469A
:100B30006317D30083A6C718558E23A6C7180507C9
:100B4000D8C3C6978CC7014582807971938701828B
:100B50004ECE83A9070052CC56CA5AC806D622D414
:100B600026D24AD05EC6AA8A2E8A054B83A489144F
:100B700081C8C0401309F4FF0A042694635D09008C
:100B8000B250225492540259F249624AD24A424B1C
:100B9000B24B4561828063090A0083274410638554
:100BA00047017D197114D9BFD8405C407D17631689
:100BB000270323A22401F5D783A6841833172B011A
:100BC00083AB4400F98E89EE8297DC40E39077FB9B
:100BD00083A78914E38797FC51BF23220400E1BF58
:100BE00083A6C41883254408758F01E7568582972C
:100BF000E9BF2E858297D1BF411106C609200100A9
:100C0000FDBF084D8280084D8280411126C2AA8412
:100C1000484D8C5006C61C4122C49C4382972A84AE
:100C2000884CE5249377F403B2402244850792442C
:100C30003355F50241018280C9BF411122C42A8483
:100C4000484D0C5006C61C419C438297084C2244D8
:100C5000B24041015DACD5B71C51411126C2C4431D
:100C60005C5122C406C6BE945C412A8499C30845DF
:100C700082979C401397F700634707009C40417799
:100C80007D17F98F9CC05C4C91C79C4037070200D0
:100C9000D98F9CC05C480C5822859C4782970323BF
:100CA000C4006308030008482244B2409244410152
:100CB0000283B240224492444101828041114AC0E1
:100CC0002A8908518325490206C61C4122C426C22E
:100CD0009C438297832709022A848325C9029C4367
:100CE000032589029C4382979317F40063CA070087
:100CF000224403258901B24092440249410131A4B2
:100D00009317E400AA8463D307060325C901F52AD3
:100D10009317D40063C607049357440085669386EF
:100D200006C093F7F703137774008507758C930655
:100D3000F03F0507860763FE86023345E5022980FA
:100D40003305F50285473394870093F70410334544
:100D5000850299E793F4F4038504860433559502DC
:100D6000B240224492440249410182800325890114
:100D700079BF7D55F5B71C51797122D4C0435C51C0
:100D80004ECE26D23E941C554AD006D683A94700A3
:100D90001C40AA840329C5021397F7006357070074
:100DA0001840C176FD16758F18C01C401397E700D8
:100DB000635B0702C84C2EC6892A8D46B306D5024E
:100DC0009147B245B3C6F60263C1D5021547330752
:100DD000E5023347F702634AB7001C4037070400B7
:100DE000D98F1CC0CDA0884CF9B737160080B70842
:100DF0000080130686E4FD5693C8F8FF13083004FC
:100E0000FD5718466369E50258466366A702184213
:100E1000032346003307E50233576702630DF700EB
:100E20000D8F1353F7413347E30033076740635493
:100E30001701BA88C2867D180116E314F8FCE38E08
:100E400006F918409606B3872901619B18C0370739
:100E500000801307875E3697144B10409D8AD18E11
:100E600014C0144093F6F6C014C0544B10409206C0
:100E700093F6063FD18E14C014407D761306F63FDC
:100E8000F18E14C0144F0C400566AA06130606C066
:100E9000F18E584FCD8E14C06353070498431367E7
:100EA000071098C39843137707FC98C398431367B8
:100EB000170098C31C403707FCFF7D17F98F1CC033
:100EC0001C40E3DF07FE1C404167B250D98F1CC0B5
:100ED00022540259F249268592544561C5B3944380
:100EE0001377F70393F6F6EF94C3944393F606FC57
:100EF00094C39443558F75BF5C41BE9588418280F1
:100F00005C413285BE9590C182801C4103A30700DD
:100F100002835C41011122CC06CE26CA2A8489C7ED
:100F200008452EC68297B2451C402285DC43829735
:100F30005C44AA8499C308488297F240624426859B
:060F4000D244056182802D
:100F48000D0A504D552049452000000020434155C9
:100F58005345200020424B312000000020424B31F5
:100F6800352000000D0A00000D0A57616B6520420C
:100F78004B312000536C65657020424B31200000D6
:100F8800416674657220424B312000000D0A4846C4
:100F98004F5343204672657120697320000000009A
:100FA8002E0000004D487A0D0A0000004C464F53B1
:100FB8004320467265712069732000006B487A0DE2
:100FC8000A0000004350552046726571206973205D
:100FD800000000001B5B3146000000001B5B304A2C
:100FE800000000001B5B3F32356800001B5B303B94
:100FF80033393B34396D000042656E636820436CB9
:101008006F636B20526573657420436F6D706C65F8
:1010180074650D0A00000000281000200000000080
:101028006C6962676C6F737300000000580C0020D5
:08103800BC0C0020760D002025
:08104000BA030020D0030020D8
:101048000000000000000000000000000000000098
:101058000000000000000000000000000000000088
:101068000000000000000000000000000000000078
:101078000000000000000000000000000000000068
:101088000000000000000000000000000000000058
:101098000000000000000000000000000000000048
:1010A8000000000000000000000000000000000038
:1010B8000000000000000000000000000000000028
:1010C8000000000000000000000000000000000018
:1010D8000000000000000000000000000000000008
:1010E80000000000000000000000000000000000F8
:1010F80000000000000000000000000000000000E8
:1011080000000000000000000000000000000000D7
:1011180000000000000000000000000000000000C7
:1011280000000000000000000000000000000000B7
:1011380000000000000000000000000000000000A7
:1011480000000000EC03008054040080BC04008010
:101158000000000000000000000000000000000087
:101168000000000000000000000000000000000077
:101178000000000000000000000000000000000067
:101188000000000000000000000000000000000057
:101198000000000000000000000000000000000047
:1011A8000000000000000000000000000000000037
:1011B8000000000000000000000000000000000027
:1011C8000000000000000000000000000000000017
:1011D8000000000000000000000000000000000007
:1011E80000000000000000000100000000000000F6
:1011F8000E33CDAB34126DE6ECDE05000B000000BB
:1012080000000000000000000000000000000000D6
:1012180000000000000000000000000000000000C6
:1012280000000000000000000000000000000000B6
:1012380000000000000000000000000000000000A6
:101568000000000000000000680E0080000000007D
:10157800000000000000000000000000680E00806D
:101588000024F400780E0080000000000000000035
:101598000000000000000000780E00802805008090
:1015A800A805008004000000680E0080000000000C
:1015B800000000000000000000000000680E00802D
:1015C80000A24A04700E0080000000000000000025
:1015D8000000000000000000700E00806805008018
:1015E800A805008000000000800E00800080001028
:1015F80000800000381000200000000000000000FB
:101608000000000000000000341000208405008065
:1016180044050080A805008008000000A805008097
:101628000C0000000024F40001000000200000006D
:10163800001BB70000366E01010000001F0000000B
:10164800030000003F00000001000000200000002F
:1016580000366E01006CDC02030000001F00000071
:10166800020000003F000000010000001000000020
:10167800808D5B00001BB700000000001F00000009
:10168800030000003F0000000100000010000000FF
:10169800001BB70000366E01010000001F000000AB
:1016A800020000003F0000000100000010000000E0
:1016B80000366E01006CDC02030000001F00000011
:1016C800020000001F0000000100000008000000E8
:1016D800808D5B00001BB700000000001F000000A9
:1016E800030000001F0000000100000008000000C7
:1016F800001BB70000366E01010000001F0000004B
:10170800020000001F0000000100000008000000A7
:1017180000366E01006CDC02030000001F000000B0
:10172800020000000F00000001000000040000009B
:10173800808D5B00001BB700000000001F00000048
:10174800030000000F00000001000000040000007A
:10175800001BB70000366E01010000001F000000EA
:10176800020000000F00000001000000040000005B
:1017780000366E01006CDC02030000001F00000050
:101788000200000007000000010000000200000045
:10179800808D5B00001BB700000000001F000000E8
:1017A800020000000F00000001000000020000001D
:1017B800001BB70000366E01010000001F0000008A
:1017C800010000000F0000000100000002000000FE
:1017D80000366E01006CDC02030000001F000000F0
:1017E80001000000070000000200000001000000E6
:1017F800808D5B00001BB700000000001F00000088
:1018080001000000070000000200000001000000C5
:10181800001BB70000366E01010000001F00000029
:1018280001000000030000000200000001000000A9
:1018380000366E01006CDC02030000001F0000008F
:1018480003000000FFFFFFFF04000000010000008C
:10185800808D5B00001BB700000000001F00000027
:101868000300000000000000040000000100000068
:10187800001BB70000366E01010000001F000000C9
:1018880003000000FFFFFFFF04000000010000004C
:1018980000366E01006CDC02030000001F0000002F
:1018A80002000000FFFFFFFF06000000010000002B
:1018B800808D5B00AAC2A200000000002300000087
:1018C8000100000002000000060000000100000006
:1018D800AAC2A200001BB700000000001700000009
:1018E80003000000FFFFFFFF0600000001000000EA
:1018F800001BB7000024F400010000002F000000C6
:1019080003000000FFFFFFFF0600000001000000C9
:101918000024F40080A81201010000001700000054
:1019280002000000FFFFFFFF0600000001000000AA
:1019380080A812015585450102000000230000001F
:1019480002000000FFFFFFFF080000000100000088
:10195800808D5B00001BB700000000001F00000026
:1019680003000000FFFFFFFF080000000100000067
:10197800001BB70000366E01010000001F000000C8
:1019880002000000FFFFFFFF080000000100000048
:1019980000366E01006CDC02030000001F0000002E
:1019A80001000000FFFFFFFF0A0000000100000027
:1019B800808D5B00007C9200000000002700000082
:1019C80003000000FFFFFFFF0A0000000100000005
:1019D800007C9200001BB70000000000130000000C
:1019E80002000000FFFFFFFF0A00000001000000E6
:1019F800001BB70000F824010100000027000000C8
:101A080002000000FFFFFFFF0A00000001000000C5
:101A180000F8240100366E010100000013000000E8
:101A280001000000FFFFFFFF0A00000001000000A6
:101A380000366E0100F04902030000002700000094
:101A480001000000FFFFFFFF0C0000000100000084
:101A5800808D5B0000127A00000000002F0000005B
:101A680003000000FFFFFFFF0C0000000100000062
:101A780000127A00001BB7000000000017000000E9
:101A880002000000FFFFFFFF0C0000000100000043
:101A9800001BB7000024F400010000002F00000024
:101AA80002000000FFFFFFFF0C0000000100000023
:101AB8000024F40000366E01010000001700000049
:101AC80001000000FFFFFFFF0C0000000100000004
:101AD80000366E0180C3C901030000002F0000001A
:101AE80001000000FFFFFFFF0C00000001000000E4
:101AF80080C3C9010048E801030000002F0000006E
:101B080001000000FFFFFFFF0E00000001000000C1
:101B1800808D5B00B6A1680000000000370000005F
:101B280003000000FFFFFFFF0E000000010000009F
:101B3800B7A16800001BB700000000001B000000F0
:101B480002000000FFFFFFFF0E0000000100000080
:101B5800001BB7006D43D1000100000037000000F2
:101B680002000000FFFFFFFF0E0000000100000060
:101B78006E43D10000366E01010000001B0000001A
:101B880001000000FFFFFFFF0E0000000100000041
:101B980000366E01DB86A20103000000370000005A
:101BA80001000000FFFFFFFF10000000010000001F
:101BB800808D5B00001BB700000000001F000000C4
:101BC80002000000FFFFFFFF1000000001000000FE
:101BD800001BB70000366E01010000001F00000066
:101BE80001000000FFFFFFFF1200000001000000DD
:101BF800808D5B00AAC2A200000000002300000044
:101C080002000000FFFFFFFF1200000001000000BB
:101C1800ABC2A200001BB7000000000011000000CA
:101C280001000000FFFFFFFF12000000010000009C
:101C3800001BB70055854501010000002300000086
:101C480001000000FFFFFFFF14000000010000007A
:101C5800808D5B00007C92000000000027000000DF
:101C680002000000FFFFFFFF140000000100000059
:101C7800007C9200001BB700000000001300000069
:101C880001000000FFFFFFFF14000000010000003A
:101C9800001BB70000F82401010000002700000025
:101CA80001000000FFFFFFFF160000000100000018
:101CB800808D5B00E82A8500000000002B000000F2
:101CC80002000000FFFFFFFF1600000001000000F7
:101CD800E92A8500001BB70000000000150000007D
:101CE80001000000FFFFFFFF1600000001000000D8
:101CF800001BB700D1550A01010000002B000000AD
:101D080001000000FFFFFFFF1800000001000000B5
:101D1800808D5B0000127A00000000002F00000098
:101D280002000000FFFFFFFF180000000100000094
:101D380000127A00001BB700000000001700000026
:101D480001000000FFFFFFFF180000000100000075
:101D5800001BB7000024F400010000002F00000061
:101D680001000000FFFFFFFF1A0000000100000053
:101D7800808D5B0027AE700000000000330000007B
:101D880002000000FFFFFFFF1A0000000100000032
:101D980028AE7000001BB70000000000190000000A
:101DA80001000000FFFFFFFF1A0000000100000013
:101DB800001BB7006658E100010000003300000076
:101DC80001000000FFFFFFFF1C00000001000000F1
:101DD800808D5B00B6A1680000000000370000009D
:101DE80002000000FFFFFFFF1C00000001000000D0
:101DF800B7A16800001BB700000000001B0000002E
:101E080001000000FFFFFFFF1C00000001000000B0
:101E1800001BB7006D43D10001000000370000002F
:101E280001000000FFFFFFFF1E000000010000008E
:101E3800808D5B0000A86100000000003B000000EE
:101E480002000000FFFFFFFF1E000000010000006D
:101E580000A86100001BB700000000001D00000082
:101E680001000000FFFFFFFF1E000000010000004E
:101E7800001BB7000050C300010000003B00000039
:101E880001000000FFFFFFFF20000000010000002C
:101E9800808D5B00001BB700000000001F000000E1
:101EA80001000000FFFFFFFF020C0020060C0020CD
:101EB8000A0C0020380C00203A0C0020560C002098
:0C1EC800F80E0020000F00200001008038
:0400000520000000D7
:00000001FF
